{
  "contractName": "Marketplace",
  "abi": [
    {
      "constant": true,
      "inputs": [],
      "name": "name",
      "outputs": [
        {
          "name": "",
          "type": "string"
        }
      ],
      "payable": false,
      "stateMutability": "view",
      "type": "function",
      "signature": "0x06fdde03"
    },
    {
      "constant": true,
      "inputs": [],
      "name": "preCount",
      "outputs": [
        {
          "name": "",
          "type": "uint256"
        }
      ],
      "payable": false,
      "stateMutability": "view",
      "type": "function",
      "signature": "0x0843fdff"
    },
    {
      "constant": true,
      "inputs": [],
      "name": "patientname",
      "outputs": [
        {
          "name": "",
          "type": "string"
        }
      ],
      "payable": false,
      "stateMutability": "view",
      "type": "function",
      "signature": "0x2b35d00a"
    },
    {
      "constant": true,
      "inputs": [
        {
          "name": "",
          "type": "uint256"
        }
      ],
      "name": "prescriptions",
      "outputs": [
        {
          "name": "patidp",
          "type": "uint256"
        },
        {
          "name": "docidp",
          "type": "uint256"
        },
        {
          "name": "docnamep",
          "type": "string"
        },
        {
          "name": "filenamep",
          "type": "string"
        },
        {
          "name": "datep",
          "type": "string"
        },
        {
          "name": "hashp",
          "type": "string"
        }
      ],
      "payable": false,
      "stateMutability": "view",
      "type": "function",
      "signature": "0x31dfc91b"
    },
    {
      "constant": true,
      "inputs": [],
      "name": "repCount",
      "outputs": [
        {
          "name": "",
          "type": "uint256"
        }
      ],
      "payable": false,
      "stateMutability": "view",
      "type": "function",
      "signature": "0x3841886c"
    },
    {
      "constant": true,
      "inputs": [],
      "name": "docCount",
      "outputs": [
        {
          "name": "",
          "type": "uint256"
        }
      ],
      "payable": false,
      "stateMutability": "view",
      "type": "function",
      "signature": "0x4c4dc6e0"
    },
    {
      "constant": true,
      "inputs": [
        {
          "name": "",
          "type": "uint256"
        }
      ],
      "name": "apps",
      "outputs": [
        {
          "name": "patid",
          "type": "uint256"
        },
        {
          "name": "docid",
          "type": "uint256"
        },
        {
          "name": "patname",
          "type": "string"
        },
        {
          "name": "blood",
          "type": "string"
        },
        {
          "name": "addr",
          "type": "string"
        },
        {
          "name": "patadd",
          "type": "address"
        },
        {
          "name": "docadd",
          "type": "address"
        },
        {
          "name": "status",
          "type": "bool"
        }
      ],
      "payable": false,
      "stateMutability": "view",
      "type": "function",
      "signature": "0x61acc37e"
    },
    {
      "constant": true,
      "inputs": [],
      "name": "patCount",
      "outputs": [
        {
          "name": "",
          "type": "uint256"
        }
      ],
      "payable": false,
      "stateMutability": "view",
      "type": "function",
      "signature": "0x6ad0c854"
    },
    {
      "constant": true,
      "inputs": [
        {
          "name": "",
          "type": "uint256"
        }
      ],
      "name": "doctors",
      "outputs": [
        {
          "name": "id",
          "type": "uint256"
        },
        {
          "name": "name",
          "type": "string"
        },
        {
          "name": "spec",
          "type": "string"
        },
        {
          "name": "email",
          "type": "string"
        },
        {
          "name": "addr",
          "type": "string"
        },
        {
          "name": "filehash",
          "type": "string"
        },
        {
          "name": "docacc",
          "type": "address"
        },
        {
          "name": "pri",
          "type": "string"
        }
      ],
      "payable": false,
      "stateMutability": "view",
      "type": "function",
      "signature": "0x6efb1b84"
    },
    {
      "constant": true,
      "inputs": [],
      "name": "AppCount",
      "outputs": [
        {
          "name": "",
          "type": "uint256"
        }
      ],
      "payable": false,
      "stateMutability": "view",
      "type": "function",
      "signature": "0x77d6758d"
    },
    {
      "constant": true,
      "inputs": [
        {
          "name": "",
          "type": "uint256"
        }
      ],
      "name": "patients",
      "outputs": [
        {
          "name": "id",
          "type": "uint256"
        },
        {
          "name": "name",
          "type": "string"
        },
        {
          "name": "email",
          "type": "string"
        },
        {
          "name": "blood",
          "type": "string"
        },
        {
          "name": "addr",
          "type": "string"
        },
        {
          "name": "patacc",
          "type": "address"
        },
        {
          "name": "pri",
          "type": "string"
        }
      ],
      "payable": false,
      "stateMutability": "view",
      "type": "function",
      "signature": "0x93119a83"
    },
    {
      "constant": true,
      "inputs": [
        {
          "name": "",
          "type": "uint256"
        }
      ],
      "name": "reports",
      "outputs": [
        {
          "name": "patid",
          "type": "uint256"
        },
        {
          "name": "docid",
          "type": "uint256"
        },
        {
          "name": "docname",
          "type": "string"
        },
        {
          "name": "repname",
          "type": "string"
        },
        {
          "name": "hash",
          "type": "string"
        }
      ],
      "payable": false,
      "stateMutability": "view",
      "type": "function",
      "signature": "0xc942adf7"
    },
    {
      "inputs": [],
      "payable": false,
      "stateMutability": "nonpayable",
      "type": "constructor",
      "signature": "constructor"
    },
    {
      "anonymous": false,
      "inputs": [
        {
          "indexed": false,
          "name": "id",
          "type": "uint256"
        },
        {
          "indexed": false,
          "name": "name",
          "type": "string"
        },
        {
          "indexed": false,
          "name": "email",
          "type": "string"
        },
        {
          "indexed": false,
          "name": "blood",
          "type": "string"
        },
        {
          "indexed": false,
          "name": "addr",
          "type": "string"
        },
        {
          "indexed": false,
          "name": "patacc",
          "type": "address"
        },
        {
          "indexed": false,
          "name": "patpri",
          "type": "string"
        }
      ],
      "name": "PatientCreated",
      "type": "event",
      "signature": "0x6906588b5b6823b1782d6f280a7393dbd365552ed53814e7efe4fce145167e4c"
    },
    {
      "anonymous": false,
      "inputs": [
        {
          "indexed": false,
          "name": "id",
          "type": "uint256"
        },
        {
          "indexed": false,
          "name": "name",
          "type": "string"
        },
        {
          "indexed": false,
          "name": "spec",
          "type": "string"
        },
        {
          "indexed": false,
          "name": "email",
          "type": "string"
        },
        {
          "indexed": false,
          "name": "addr",
          "type": "string"
        },
        {
          "indexed": false,
          "name": "filehash",
          "type": "string"
        },
        {
          "indexed": false,
          "name": "docacc",
          "type": "address"
        },
        {
          "indexed": false,
          "name": "pri",
          "type": "string"
        }
      ],
      "name": "DoctorCreated",
      "type": "event",
      "signature": "0xd46fde84d0cd6705415602dfb666c94a84ce91379b52a669dfca42a79f77cbb6"
    },
    {
      "anonymous": false,
      "inputs": [
        {
          "indexed": false,
          "name": "patid",
          "type": "uint256"
        },
        {
          "indexed": false,
          "name": "docid",
          "type": "uint256"
        },
        {
          "indexed": false,
          "name": "name1",
          "type": "string"
        },
        {
          "indexed": false,
          "name": "name2",
          "type": "string"
        },
        {
          "indexed": false,
          "name": "patient",
          "type": "address"
        },
        {
          "indexed": false,
          "name": "doctor",
          "type": "address"
        }
      ],
      "name": "bookAppointment",
      "type": "event",
      "signature": "0xf5eb8e4cb41759417fb9268e6bbfe35f7adb0d9a143d7176d51b53457fb06a8f"
    },
    {
      "anonymous": false,
      "inputs": [
        {
          "indexed": false,
          "name": "name",
          "type": "string"
        },
        {
          "indexed": false,
          "name": "ad",
          "type": "address"
        }
      ],
      "name": "searched",
      "type": "event",
      "signature": "0xfda00dfb8af0a4ba9d32ec6e7a0b6318e0964c234b764d834e8a329b4da1dae1"
    },
    {
      "constant": false,
      "inputs": [
        {
          "name": "_id",
          "type": "uint256"
        },
        {
          "name": "_name",
          "type": "string"
        },
        {
          "name": "spec",
          "type": "string"
        },
        {
          "name": "_blood",
          "type": "string"
        },
        {
          "name": "_addr",
          "type": "string"
        },
        {
          "name": "_hash",
          "type": "string"
        },
        {
          "name": "_docacc",
          "type": "address"
        },
        {
          "name": "pri",
          "type": "string"
        }
      ],
      "name": "createDoctor",
      "outputs": [],
      "payable": false,
      "stateMutability": "nonpayable",
      "type": "function",
      "signature": "0x1f7f051f"
    },
    {
      "constant": false,
      "inputs": [
        {
          "name": "_name",
          "type": "string"
        },
        {
          "name": "_mail",
          "type": "string"
        },
        {
          "name": "_blood",
          "type": "string"
        },
        {
          "name": "_addr",
          "type": "string"
        },
        {
          "name": "_patacc",
          "type": "address"
        },
        {
          "name": "patpri",
          "type": "string"
        }
      ],
      "name": "createPatient",
      "outputs": [],
      "payable": false,
      "stateMutability": "nonpayable",
      "type": "function",
      "signature": "0xb505485d"
    },
    {
      "constant": false,
      "inputs": [
        {
          "name": "pat_id",
          "type": "uint256"
        },
        {
          "name": "doc_id2",
          "type": "uint256"
        }
      ],
      "name": "bookAppointments",
      "outputs": [],
      "payable": true,
      "stateMutability": "payable",
      "type": "function",
      "signature": "0x77a50732"
    },
    {
      "constant": false,
      "inputs": [
        {
          "name": "_patient",
          "type": "address"
        }
      ],
      "name": "searchPatient",
      "outputs": [],
      "payable": false,
      "stateMutability": "nonpayable",
      "type": "function",
      "signature": "0xbfde8ac6"
    },
    {
      "constant": false,
      "inputs": [
        {
          "name": "patadd",
          "type": "address"
        },
        {
          "name": "docadd",
          "type": "address"
        }
      ],
      "name": "ApproveAppointment",
      "outputs": [],
      "payable": false,
      "stateMutability": "nonpayable",
      "type": "function",
      "signature": "0x7ff3bf01"
    },
    {
      "constant": false,
      "inputs": [
        {
          "name": "patid",
          "type": "uint256"
        },
        {
          "name": "docid",
          "type": "uint256"
        },
        {
          "name": "docname",
          "type": "string"
        },
        {
          "name": "name",
          "type": "string"
        },
        {
          "name": "_hash",
          "type": "string"
        }
      ],
      "name": "UploadReports",
      "outputs": [],
      "payable": false,
      "stateMutability": "nonpayable",
      "type": "function",
      "signature": "0xe12ad3f4"
    },
    {
      "constant": false,
      "inputs": [
        {
          "name": "patidp",
          "type": "uint256"
        },
        {
          "name": "doc_id",
          "type": "uint256"
        },
        {
          "name": "dname",
          "type": "string"
        },
        {
          "name": "filename",
          "type": "string"
        },
        {
          "name": "presci",
          "type": "string"
        },
        {
          "name": "filehash",
          "type": "string"
        }
      ],
      "name": "uploadPrescription",
      "outputs": [],
      "payable": false,
      "stateMutability": "nonpayable",
      "type": "function",
      "signature": "0x51e7e97e"
    }
  ],
  "bytecode": "0x60806040526103e860015560006002556000600655600060085560006009553480156200002b57600080fd5b506040805190810160405280600f81526020017f4d65646963616c207265636f7264730000000000000000000000000000000000815250600090805190602001906200007992919062000080565b506200012f565b828054600181600116156101000203166002900490600052602060002090601f016020900481019282601f10620000c357805160ff1916838001178555620000f4565b82800160010185558215620000f4579182015b82811115620000f3578251825591602001919060010190620000d6565b5b50905062000103919062000107565b5090565b6200012c91905b80821115620001285760008160009055506001016200010e565b5090565b90565b614559806200013f6000396000f3fe608060405260043610610107576000357c0100000000000000000000000000000000000000000000000000000000900463ffffffff16806306fdde031461010c5780630843fdff1461019c5780631f7f051f146101c75780632b35d00a146105ad57806331dfc91b1461063d5780633841886c146108435780634c4dc6e01461086e57806351e7e97e1461089957806361acc37e14610b3a5780636ad0c85414610d455780636efb1b8414610d7057806377a507321461107a57806377d6758d146110b25780637ff3bf01146110dd57806393119a831461114e578063b505485d146113ec578063bfde8ac614611730578063c942adf714611781578063e12ad3f41461191b575b600080fd5b34801561011857600080fd5b50610121611b25565b6040518080602001828103825283818151815260200191508051906020019080838360005b83811015610161578082015181840152602081019050610146565b50505050905090810190601f16801561018e5780820380516001836020036101000a031916815260200191505b509250505060405180910390f35b3480156101a857600080fd5b506101b1611bc3565b6040518082815260200191505060405180910390f35b3480156101d357600080fd5b506105ab60048036036101008110156101eb57600080fd5b81019080803590602001909291908035906020019064010000000081111561021257600080fd5b82018360208201111561022457600080fd5b8035906020019184600183028401116401000000008311171561024657600080fd5b91908080601f016020809104026020016040519081016040528093929190818152602001838380828437600081840152601f19601f820116905080830192505050505050509192919290803590602001906401000000008111156102a957600080fd5b8201836020820111156102bb57600080fd5b803590602001918460018302840111640100000000831117156102dd57600080fd5b91908080601f016020809104026020016040519081016040528093929190818152602001838380828437600081840152601f19601f8201169050808301925050505050505091929192908035906020019064010000000081111561034057600080fd5b82018360208201111561035257600080fd5b8035906020019184600183028401116401000000008311171561037457600080fd5b91908080601f016020809104026020016040519081016040528093929190818152602001838380828437600081840152601f19601f820116905080830192505050505050509192919290803590602001906401000000008111156103d757600080fd5b8201836020820111156103e957600080fd5b8035906020019184600183028401116401000000008311171561040b57600080fd5b91908080601f016020809104026020016040519081016040528093929190818152602001838380828437600081840152601f19601f8201169050808301925050505050505091929192908035906020019064010000000081111561046e57600080fd5b82018360208201111561048057600080fd5b803590602001918460018302840111640100000000831117156104a257600080fd5b91908080601f016020809104026020016040519081016040528093929190818152602001838380828437600081840152601f19601f820116905080830192505050505050509192919290803573ffffffffffffffffffffffffffffffffffffffff1690602001909291908035906020019064010000000081111561052557600080fd5b82018360208201111561053757600080fd5b8035906020019184600183028401116401000000008311171561055957600080fd5b91908080601f016020809104026020016040519081016040528093929190818152602001838380828437600081840152601f19601f820116905080830192505050505050509192919290505050611bc9565b005b3480156105b957600080fd5b506105c2612046565b6040518080602001828103825283818151815260200191508051906020019080838360005b838110156106025780820151818401526020810190506105e7565b50505050905090810190601f16801561062f5780820380516001836020036101000a031916815260200191505b509250505060405180910390f35b34801561064957600080fd5b506106766004803603602081101561066057600080fd5b81019080803590602001909291905050506120e4565b6040518087815260200186815260200180602001806020018060200180602001858103855289818151815260200191508051906020019080838360005b838110156106ce5780820151818401526020810190506106b3565b50505050905090810190601f1680156106fb5780820380516001836020036101000a031916815260200191505b50858103845288818151815260200191508051906020019080838360005b83811015610734578082015181840152602081019050610719565b50505050905090810190601f1680156107615780820380516001836020036101000a031916815260200191505b50858103835287818151815260200191508051906020019080838360005b8381101561079a57808201518184015260208101905061077f565b50505050905090810190601f1680156107c75780820380516001836020036101000a031916815260200191505b50858103825286818151815260200191508051906020019080838360005b838110156108005780820151818401526020810190506107e5565b50505050905090810190601f16801561082d5780820380516001836020036101000a031916815260200191505b509a505050505050505050505060405180910390f35b34801561084f57600080fd5b50610858612380565b6040518082815260200191505060405180910390f35b34801561087a57600080fd5b50610883612386565b6040518082815260200191505060405180910390f35b3480156108a557600080fd5b50610b38600480360360c08110156108bc57600080fd5b810190808035906020019092919080359060200190929190803590602001906401000000008111156108ed57600080fd5b8201836020820111156108ff57600080fd5b8035906020019184600183028401116401000000008311171561092157600080fd5b91908080601f016020809104026020016040519081016040528093929190818152602001838380828437600081840152601f19601f8201169050808301925050505050505091929192908035906020019064010000000081111561098457600080fd5b82018360208201111561099657600080fd5b803590602001918460018302840111640100000000831117156109b857600080fd5b91908080601f016020809104026020016040519081016040528093929190818152602001838380828437600081840152601f19601f82011690508083019250505050505050919291929080359060200190640100000000811115610a1b57600080fd5b820183602082011115610a2d57600080fd5b80359060200191846001830284011164010000000083111715610a4f57600080fd5b91908080601f016020809104026020016040519081016040528093929190818152602001838380828437600081840152601f19601f82011690508083019250505050505050919291929080359060200190640100000000811115610ab257600080fd5b820183602082011115610ac457600080fd5b80359060200191846001830284011164010000000083111715610ae657600080fd5b91908080601f016020809104026020016040519081016040528093929190818152602001838380828437600081840152601f19601f82011690508083019250505050505050919291929050505061238c565b005b348015610b4657600080fd5b50610b7360048036036020811015610b5d57600080fd5b8101908080359060200190929190505050612480565b604051808981526020018881526020018060200180602001806020018773ffffffffffffffffffffffffffffffffffffffff1673ffffffffffffffffffffffffffffffffffffffff1681526020018673ffffffffffffffffffffffffffffffffffffffff1673ffffffffffffffffffffffffffffffffffffffff1681526020018515151515815260200184810384528a818151815260200191508051906020019080838360005b83811015610c35578082015181840152602081019050610c1a565b50505050905090810190601f168015610c625780820380516001836020036101000a031916815260200191505b50848103835289818151815260200191508051906020019080838360005b83811015610c9b578082015181840152602081019050610c80565b50505050905090810190601f168015610cc85780820380516001836020036101000a031916815260200191505b50848103825288818151815260200191508051906020019080838360005b83811015610d01578082015181840152602081019050610ce6565b50505050905090810190601f168015610d2e5780820380516001836020036101000a031916815260200191505b509b50505050505050505050505060405180910390f35b348015610d5157600080fd5b50610d5a6126dd565b6040518082815260200191505060405180910390f35b348015610d7c57600080fd5b50610da960048036036020811015610d9357600080fd5b81019080803590602001909291905050506126e3565b6040518089815260200180602001806020018060200180602001806020018873ffffffffffffffffffffffffffffffffffffffff1673ffffffffffffffffffffffffffffffffffffffff1681526020018060200187810387528e818151815260200191508051906020019080838360005b83811015610e35578082015181840152602081019050610e1a565b50505050905090810190601f168015610e625780820380516001836020036101000a031916815260200191505b5087810386528d818151815260200191508051906020019080838360005b83811015610e9b578082015181840152602081019050610e80565b50505050905090810190601f168015610ec85780820380516001836020036101000a031916815260200191505b5087810385528c818151815260200191508051906020019080838360005b83811015610f01578082015181840152602081019050610ee6565b50505050905090810190601f168015610f2e5780820380516001836020036101000a031916815260200191505b5087810384528b818151815260200191508051906020019080838360005b83811015610f67578082015181840152602081019050610f4c565b50505050905090810190601f168015610f945780820380516001836020036101000a031916815260200191505b5087810383528a818151815260200191508051906020019080838360005b83811015610fcd578082015181840152602081019050610fb2565b50505050905090810190601f168015610ffa5780820380516001836020036101000a031916815260200191505b50878103825288818151815260200191508051906020019080838360005b83811015611033578082015181840152602081019050611018565b50505050905090810190601f1680156110605780820380516001836020036101000a031916815260200191505b509e50505050505050505050505050505060405180910390f35b6110b06004803603604081101561109057600080fd5b810190808035906020019092919080359060200190929190505050612adb565b005b3480156110be57600080fd5b506110c76136bf565b6040518082815260200191505060405180910390f35b3480156110e957600080fd5b5061114c6004803603604081101561110057600080fd5b81019080803573ffffffffffffffffffffffffffffffffffffffff169060200190929190803573ffffffffffffffffffffffffffffffffffffffff1690602001909291905050506136c5565b005b34801561115a57600080fd5b506111876004803603602081101561117157600080fd5b8101908080359060200190929190505050613782565b60405180888152602001806020018060200180602001806020018773ffffffffffffffffffffffffffffffffffffffff1673ffffffffffffffffffffffffffffffffffffffff1681526020018060200186810386528c818151815260200191508051906020019080838360005b8381101561120f5780820151818401526020810190506111f4565b50505050905090810190601f16801561123c5780820380516001836020036101000a031916815260200191505b5086810385528b818151815260200191508051906020019080838360005b8381101561127557808201518184015260208101905061125a565b50505050905090810190601f1680156112a25780820380516001836020036101000a031916815260200191505b5086810384528a818151815260200191508051906020019080838360005b838110156112db5780820151818401526020810190506112c0565b50505050905090810190601f1680156113085780820380516001836020036101000a031916815260200191505b50868103835289818151815260200191508051906020019080838360005b83811015611341578082015181840152602081019050611326565b50505050905090810190601f16801561136e5780820380516001836020036101000a031916815260200191505b50868103825287818151815260200191508051906020019080838360005b838110156113a757808201518184015260208101905061138c565b50505050905090810190601f1680156113d45780820380516001836020036101000a031916815260200191505b509c5050505050505050505050505060405180910390f35b3480156113f857600080fd5b5061172e600480360360c081101561140f57600080fd5b810190808035906020019064010000000081111561142c57600080fd5b82018360208201111561143e57600080fd5b8035906020019184600183028401116401000000008311171561146057600080fd5b91908080601f016020809104026020016040519081016040528093929190818152602001838380828437600081840152601f19601f820116905080830192505050505050509192919290803590602001906401000000008111156114c357600080fd5b8201836020820111156114d557600080fd5b803590602001918460018302840111640100000000831117156114f757600080fd5b91908080601f016020809104026020016040519081016040528093929190818152602001838380828437600081840152601f19601f8201169050808301925050505050505091929192908035906020019064010000000081111561155a57600080fd5b82018360208201111561156c57600080fd5b8035906020019184600183028401116401000000008311171561158e57600080fd5b91908080601f016020809104026020016040519081016040528093929190818152602001838380828437600081840152601f19601f820116905080830192505050505050509192919290803590602001906401000000008111156115f157600080fd5b82018360208201111561160357600080fd5b8035906020019184600183028401116401000000008311171561162557600080fd5b91908080601f016020809104026020016040519081016040528093929190818152602001838380828437600081840152601f19601f820116905080830192505050505050509192919290803573ffffffffffffffffffffffffffffffffffffffff169060200190929190803590602001906401000000008111156116a857600080fd5b8201836020820111156116ba57600080fd5b803590602001918460018302840111640100000000831117156116dc57600080fd5b91908080601f016020809104026020016040519081016040528093929190818152602001838380828437600081840152601f19601f820116905080830192505050505050509192919290505050613adc565b005b34801561173c57600080fd5b5061177f6004803603602081101561175357600080fd5b81019080803573ffffffffffffffffffffffffffffffffffffffff169060200190929190505050613ed8565b005b34801561178d57600080fd5b506117ba600480360360208110156117a457600080fd5b8101908080359060200190929190505050613f9c565b60405180868152602001858152602001806020018060200180602001848103845287818151815260200191508051906020019080838360005b8381101561180e5780820151818401526020810190506117f3565b50505050905090810190601f16801561183b5780820380516001836020036101000a031916815260200191505b50848103835286818151815260200191508051906020019080838360005b83811015611874578082015181840152602081019050611859565b50505050905090810190601f1680156118a15780820380516001836020036101000a031916815260200191505b50848103825285818151815260200191508051906020019080838360005b838110156118da5780820151818401526020810190506118bf565b50505050905090810190601f1680156119075780820380516001836020036101000a031916815260200191505b509850505050505050505060405180910390f35b34801561192757600080fd5b50611b23600480360360a081101561193e57600080fd5b8101908080359060200190929190803590602001909291908035906020019064010000000081111561196f57600080fd5b82018360208201111561198157600080fd5b803590602001918460018302840111640100000000831117156119a357600080fd5b91908080601f016020809104026020016040519081016040528093929190818152602001838380828437600081840152601f19601f82011690508083019250505050505050919291929080359060200190640100000000811115611a0657600080fd5b820183602082011115611a1857600080fd5b80359060200191846001830284011164010000000083111715611a3a57600080fd5b91908080601f016020809104026020016040519081016040528093929190818152602001838380828437600081840152601f19601f82011690508083019250505050505050919291929080359060200190640100000000811115611a9d57600080fd5b820183602082011115611aaf57600080fd5b80359060200191846001830284011164010000000083111715611ad157600080fd5b91908080601f016020809104026020016040519081016040528093929190818152602001838380828437600081840152601f19601f82011690508083019250505050505050919291929050505061419a565b005b60008054600181600116156101000203166002900480601f016020809104026020016040519081016040528092919081815260200182805460018160011615610100020316600290048015611bbb5780601f10611b9057610100808354040283529160200191611bbb565b820191906000526020600020905b815481529060010190602001808311611b9e57829003601f168201915b505050505081565b60065481565b600960008154809291906001019190505550610100604051908101604052808981526020018881526020018781526020018681526020018581526020018481526020018373ffffffffffffffffffffffffffffffffffffffff16815260200182815250600b60006009548152602001908152602001600020600082015181600001556020820151816001019080519060200190611c6792919061426a565b506040820151816002019080519060200190611c8492919061426a565b506060820151816003019080519060200190611ca192919061426a565b506080820151816004019080519060200190611cbe92919061426a565b5060a0820151816005019080519060200190611cdb92919061426a565b5060c08201518160060160006101000a81548173ffffffffffffffffffffffffffffffffffffffff021916908373ffffffffffffffffffffffffffffffffffffffff16021790555060e0820151816007019080519060200190611d3f92919061426a565b509050507fd46fde84d0cd6705415602dfb666c94a84ce91379b52a669dfca42a79f77cbb688888888888888886040518089815260200180602001806020018060200180602001806020018873ffffffffffffffffffffffffffffffffffffffff1673ffffffffffffffffffffffffffffffffffffffff1681526020018060200187810387528e818151815260200191508051906020019080838360005b83811015611df8578082015181840152602081019050611ddd565b50505050905090810190601f168015611e255780820380516001836020036101000a031916815260200191505b5087810386528d818151815260200191508051906020019080838360005b83811015611e5e578082015181840152602081019050611e43565b50505050905090810190601f168015611e8b5780820380516001836020036101000a031916815260200191505b5087810385528c818151815260200191508051906020019080838360005b83811015611ec4578082015181840152602081019050611ea9565b50505050905090810190601f168015611ef15780820380516001836020036101000a031916815260200191505b5087810384528b818151815260200191508051906020019080838360005b83811015611f2a578082015181840152602081019050611f0f565b50505050905090810190601f168015611f575780820380516001836020036101000a031916815260200191505b5087810383528a818151815260200191508051906020019080838360005b83811015611f90578082015181840152602081019050611f75565b50505050905090810190601f168015611fbd5780820380516001836020036101000a031916815260200191505b50878103825288818151815260200191508051906020019080838360005b83811015611ff6578082015181840152602081019050611fdb565b50505050905090810190601f1680156120235780820380516001836020036101000a031916815260200191505b509e50505050505050505050505050505060405180910390a15050505050505050565b600a8054600181600116156101000203166002900480601f0160208091040260200160405190810160405280929190818152602001828054600181600116156101000203166002900480156120dc5780601f106120b1576101008083540402835291602001916120dc565b820191906000526020600020905b8154815290600101906020018083116120bf57829003601f168201915b505050505081565b6005602052806000526040600020600091509050806000015490806001015490806002018054600181600116156101000203166002900480601f01602080910402602001604051908101604052809291908181526020018280546001816001161561010002031660029004801561219c5780601f106121715761010080835404028352916020019161219c565b820191906000526020600020905b81548152906001019060200180831161217f57829003601f168201915b505050505090806003018054600181600116156101000203166002900480601f01602080910402602001604051908101604052809291908181526020018280546001816001161561010002031660029004801561223a5780601f1061220f5761010080835404028352916020019161223a565b820191906000526020600020905b81548152906001019060200180831161221d57829003601f168201915b505050505090806004018054600181600116156101000203166002900480601f0160208091040260200160405190810160405280929190818152602001828054600181600116156101000203166002900480156122d85780601f106122ad576101008083540402835291602001916122d8565b820191906000526020600020905b8154815290600101906020018083116122bb57829003601f168201915b505050505090806005018054600181600116156101000203166002900480601f0160208091040260200160405190810160405280929190818152602001828054600181600116156101000203166002900480156123765780601f1061234b57610100808354040283529160200191612376565b820191906000526020600020905b81548152906001019060200180831161235957829003601f168201915b5050505050905086565b60085481565b60095481565b6006600081548092919060010191905055506123a66142ea565b60c060405190810160405280888152602001878152602001868152602001858152602001848152602001838152509050806005600060065481526020019081526020016000206000820151816000015560208201518160010155604082015181600201908051906020019061241c92919061426a565b50606082015181600301908051906020019061243992919061426a565b50608082015181600401908051906020019061245692919061426a565b5060a082015181600501908051906020019061247392919061426a565b5090505050505050505050565b6004602052806000526040600020600091509050806000015490806001015490806002018054600181600116156101000203166002900480601f0160208091040260200160405190810160405280929190818152602001828054600181600116156101000203166002900480156125385780601f1061250d57610100808354040283529160200191612538565b820191906000526020600020905b81548152906001019060200180831161251b57829003601f168201915b505050505090806003018054600181600116156101000203166002900480601f0160208091040260200160405190810160405280929190818152602001828054600181600116156101000203166002900480156125d65780601f106125ab576101008083540402835291602001916125d6565b820191906000526020600020905b8154815290600101906020018083116125b957829003601f168201915b505050505090806004018054600181600116156101000203166002900480601f0160208091040260200160405190810160405280929190818152602001828054600181600116156101000203166002900480156126745780601f1061264957610100808354040283529160200191612674565b820191906000526020600020905b81548152906001019060200180831161265757829003601f168201915b5050505050908060050160009054906101000a900473ffffffffffffffffffffffffffffffffffffffff16908060060160009054906101000a900473ffffffffffffffffffffffffffffffffffffffff16908060060160149054906101000a900460ff16905088565b60015481565b600b602052806000526040600020600091509050806000015490806001018054600181600116156101000203166002900480601f0160208091040260200160405190810160405280929190818152602001828054600181600116156101000203166002900480156127955780601f1061276a57610100808354040283529160200191612795565b820191906000526020600020905b81548152906001019060200180831161277857829003601f168201915b505050505090806002018054600181600116156101000203166002900480601f0160208091040260200160405190810160405280929190818152602001828054600181600116156101000203166002900480156128335780601f1061280857610100808354040283529160200191612833565b820191906000526020600020905b81548152906001019060200180831161281657829003601f168201915b505050505090806003018054600181600116156101000203166002900480601f0160208091040260200160405190810160405280929190818152602001828054600181600116156101000203166002900480156128d15780601f106128a6576101008083540402835291602001916128d1565b820191906000526020600020905b8154815290600101906020018083116128b457829003601f168201915b505050505090806004018054600181600116156101000203166002900480601f01602080910402602001604051908101604052809291908181526020018280546001816001161561010002031660029004801561296f5780601f106129445761010080835404028352916020019161296f565b820191906000526020600020905b81548152906001019060200180831161295257829003601f168201915b505050505090806005018054600181600116156101000203166002900480601f016020809104026020016040519081016040528092919081815260200182805460018160011615610100020316600290048015612a0d5780601f106129e257610100808354040283529160200191612a0d565b820191906000526020600020905b8154815290600101906020018083116129f057829003601f168201915b5050505050908060060160009054906101000a900473ffffffffffffffffffffffffffffffffffffffff1690806007018054600181600116156101000203166002900480601f016020809104026020016040519081016040528092919081815260200182805460018160011615610100020316600290048015612ad15780601f10612aa657610100808354040283529160200191612ad1565b820191906000526020600020905b815481529060010190602001808311612ab457829003601f168201915b5050505050905088565b612ae3614321565b6003600084815260200190815260200160002060e0604051908101604052908160008201548152602001600182018054600181600116156101000203166002900480601f016020809104026020016040519081016040528092919081815260200182805460018160011615610100020316600290048015612ba55780601f10612b7a57610100808354040283529160200191612ba5565b820191906000526020600020905b815481529060010190602001808311612b8857829003601f168201915b50505050508152602001600282018054600181600116156101000203166002900480601f016020809104026020016040519081016040528092919081815260200182805460018160011615610100020316600290048015612c475780601f10612c1c57610100808354040283529160200191612c47565b820191906000526020600020905b815481529060010190602001808311612c2a57829003601f168201915b50505050508152602001600382018054600181600116156101000203166002900480601f016020809104026020016040519081016040528092919081815260200182805460018160011615610100020316600290048015612ce95780601f10612cbe57610100808354040283529160200191612ce9565b820191906000526020600020905b815481529060010190602001808311612ccc57829003601f168201915b50505050508152602001600482018054600181600116156101000203166002900480601f016020809104026020016040519081016040528092919081815260200182805460018160011615610100020316600290048015612d8b5780601f10612d6057610100808354040283529160200191612d8b565b820191906000526020600020905b815481529060010190602001808311612d6e57829003601f168201915b505050505081526020016005820160009054906101000a900473ffffffffffffffffffffffffffffffffffffffff1673ffffffffffffffffffffffffffffffffffffffff1673ffffffffffffffffffffffffffffffffffffffff168152602001600682018054600181600116156101000203166002900480601f016020809104026020016040519081016040528092919081815260200182805460018160011615610100020316600290048015612e835780601f10612e5857610100808354040283529160200191612e83565b820191906000526020600020905b815481529060010190602001808311612e6657829003601f168201915b5050505050815250509050612e96614375565b600b6000848152602001908152602001600020610100604051908101604052908160008201548152602001600182018054600181600116156101000203166002900480601f016020809104026020016040519081016040528092919081815260200182805460018160011615610100020316600290048015612f595780601f10612f2e57610100808354040283529160200191612f59565b820191906000526020600020905b815481529060010190602001808311612f3c57829003601f168201915b50505050508152602001600282018054600181600116156101000203166002900480601f016020809104026020016040519081016040528092919081815260200182805460018160011615610100020316600290048015612ffb5780601f10612fd057610100808354040283529160200191612ffb565b820191906000526020600020905b815481529060010190602001808311612fde57829003601f168201915b50505050508152602001600382018054600181600116156101000203166002900480601f01602080910402602001604051908101604052809291908181526020018280546001816001161561010002031660029004801561309d5780601f106130725761010080835404028352916020019161309d565b820191906000526020600020905b81548152906001019060200180831161308057829003601f168201915b50505050508152602001600482018054600181600116156101000203166002900480601f01602080910402602001604051908101604052809291908181526020018280546001816001161561010002031660029004801561313f5780601f106131145761010080835404028352916020019161313f565b820191906000526020600020905b81548152906001019060200180831161312257829003601f168201915b50505050508152602001600582018054600181600116156101000203166002900480601f0160208091040260200160405190810160405280929190818152602001828054600181600116156101000203166002900480156131e15780601f106131b6576101008083540402835291602001916131e1565b820191906000526020600020905b8154815290600101906020018083116131c457829003601f168201915b505050505081526020016006820160009054906101000a900473ffffffffffffffffffffffffffffffffffffffff1673ffffffffffffffffffffffffffffffffffffffff1673ffffffffffffffffffffffffffffffffffffffff168152602001600782018054600181600116156101000203166002900480601f0160208091040260200160405190810160405280929190818152602001828054600181600116156101000203166002900480156132d95780601f106132ae576101008083540402835291602001916132d9565b820191906000526020600020905b8154815290600101906020018083116132bc57829003601f168201915b505050505081525050905060008160c001519050600083600001511180156133075750600154836000015111155b151561331257600080fd5b600260008154809291906001019190505550846004600060025481526020019081526020016000206000018190555083600460006002548152602001908152602001600020600101819055508260200151600460006002548152602001908152602001600020600201908051906020019061338e9291906143d1565b50826060015160046000600254815260200190815260200160002060030190805190602001906133bf9291906143d1565b50826080015160046000600254815260200190815260200160002060040190805190602001906133f09291906143d1565b508260a0015160046000600254815260200190815260200160002060050160006101000a81548173ffffffffffffffffffffffffffffffffffffffff021916908373ffffffffffffffffffffffffffffffffffffffff1602179055508160c0015160046000600254815260200190815260200160002060060160006101000a81548173ffffffffffffffffffffffffffffffffffffffff021916908373ffffffffffffffffffffffffffffffffffffffff160217905550600060046000600254815260200190815260200160002060060160146101000a81548160ff0219169083151502179055508073ffffffffffffffffffffffffffffffffffffffff166108fc349081150290604051600060405180830381858888f1935050505015801561351e573d6000803e3d6000fd5b507ff5eb8e4cb41759417fb9268e6bbfe35f7adb0d9a143d7176d51b53457fb06a8f83600001518360000151856020015185602001518760a001518760c001516040518087815260200186815260200180602001806020018573ffffffffffffffffffffffffffffffffffffffff1673ffffffffffffffffffffffffffffffffffffffff1681526020018473ffffffffffffffffffffffffffffffffffffffff1673ffffffffffffffffffffffffffffffffffffffff168152602001838103835287818151815260200191508051906020019080838360005b838110156136125780820151818401526020810190506135f7565b50505050905090810190601f16801561363f5780820380516001836020036101000a031916815260200191505b50838103825286818151815260200191508051906020019080838360005b8381101561367857808201518184015260208101905061365d565b50505050905090810190601f1680156136a55780820380516001836020036101000a031916815260200191505b509850505050505050505060405180910390a15050505050565b60025481565b60008090505b6002548111151561377d576004600082815260200190815260200160002060050160009054906101000a900473ffffffffffffffffffffffffffffffffffffffff1673ffffffffffffffffffffffffffffffffffffffff168373ffffffffffffffffffffffffffffffffffffffff1614156137705760016004600083815260200190815260200160002060060160146101000a81548160ff0219169083151502179055505b80806001019150506136cb565b505050565b6003602052806000526040600020600091509050806000015490806001018054600181600116156101000203166002900480601f0160208091040260200160405190810160405280929190818152602001828054600181600116156101000203166002900480156138345780601f1061380957610100808354040283529160200191613834565b820191906000526020600020905b81548152906001019060200180831161381757829003601f168201915b505050505090806002018054600181600116156101000203166002900480601f0160208091040260200160405190810160405280929190818152602001828054600181600116156101000203166002900480156138d25780601f106138a7576101008083540402835291602001916138d2565b820191906000526020600020905b8154815290600101906020018083116138b557829003601f168201915b505050505090806003018054600181600116156101000203166002900480601f0160208091040260200160405190810160405280929190818152602001828054600181600116156101000203166002900480156139705780601f1061394557610100808354040283529160200191613970565b820191906000526020600020905b81548152906001019060200180831161395357829003601f168201915b505050505090806004018054600181600116156101000203166002900480601f016020809104026020016040519081016040528092919081815260200182805460018160011615610100020316600290048015613a0e5780601f106139e357610100808354040283529160200191613a0e565b820191906000526020600020905b8154815290600101906020018083116139f157829003601f168201915b5050505050908060050160009054906101000a900473ffffffffffffffffffffffffffffffffffffffff1690806006018054600181600116156101000203166002900480601f016020809104026020016040519081016040528092919081815260200182805460018160011615610100020316600290048015613ad25780601f10613aa757610100808354040283529160200191613ad2565b820191906000526020600020905b815481529060010190602001808311613ab557829003601f168201915b5050505050905087565b60008651111515613aec57600080fd5b6001600081546001019190508190555060e06040519081016040528060015481526020018781526020018681526020018581526020018481526020018373ffffffffffffffffffffffffffffffffffffffff16815260200182815250600360006001548152602001908152602001600020600082015181600001556020820151816001019080519060200190613b8392919061426a565b506040820151816002019080519060200190613ba092919061426a565b506060820151816003019080519060200190613bbd92919061426a565b506080820151816004019080519060200190613bda92919061426a565b5060a08201518160050160006101000a81548173ffffffffffffffffffffffffffffffffffffffff021916908373ffffffffffffffffffffffffffffffffffffffff16021790555060c0820151816006019080519060200190613c3e92919061426a565b509050507f6906588b5b6823b1782d6f280a7393dbd365552ed53814e7efe4fce145167e4c60015487878787878760405180888152602001806020018060200180602001806020018773ffffffffffffffffffffffffffffffffffffffff1673ffffffffffffffffffffffffffffffffffffffff1681526020018060200186810386528c818151815260200191508051906020019080838360005b83811015613cf4578082015181840152602081019050613cd9565b50505050905090810190601f168015613d215780820380516001836020036101000a031916815260200191505b5086810385528b818151815260200191508051906020019080838360005b83811015613d5a578082015181840152602081019050613d3f565b50505050905090810190601f168015613d875780820380516001836020036101000a031916815260200191505b5086810384528a818151815260200191508051906020019080838360005b83811015613dc0578082015181840152602081019050613da5565b50505050905090810190601f168015613ded5780820380516001836020036101000a031916815260200191505b50868103835289818151815260200191508051906020019080838360005b83811015613e26578082015181840152602081019050613e0b565b50505050905090810190601f168015613e535780820380516001836020036101000a031916815260200191505b50868103825287818151815260200191508051906020019080838360005b83811015613e8c578082015181840152602081019050613e71565b50505050905090810190601f168015613eb95780820380516001836020036101000a031916815260200191505b509c5050505050505050505050505060405180910390a1505050505050565b60008090505b600154811015613f98578173ffffffffffffffffffffffffffffffffffffffff166003600083815260200190815260200160002060050160009054906101000a900473ffffffffffffffffffffffffffffffffffffffff1673ffffffffffffffffffffffffffffffffffffffff161415613f8b5760036000828152602001908152602001600020600101600a9080546001816001161561010002031660029004613f89929190614451565b505b8080600101915050613ede565b5050565b6007602052806000526040600020600091509050806000015490806001015490806002018054600181600116156101000203166002900480601f0160208091040260200160405190810160405280929190818152602001828054600181600116156101000203166002900480156140545780601f1061402957610100808354040283529160200191614054565b820191906000526020600020905b81548152906001019060200180831161403757829003601f168201915b505050505090806003018054600181600116156101000203166002900480601f0160208091040260200160405190810160405280929190818152602001828054600181600116156101000203166002900480156140f25780601f106140c7576101008083540402835291602001916140f2565b820191906000526020600020905b8154815290600101906020018083116140d557829003601f168201915b505050505090806004018054600181600116156101000203166002900480601f0160208091040260200160405190810160405280929190818152602001828054600181600116156101000203166002900480156141905780601f1061416557610100808354040283529160200191614190565b820191906000526020600020905b81548152906001019060200180831161417357829003601f168201915b5050505050905085565b6008600081548092919060010191905055506141b46144d8565b60a060405190810160405280878152602001868152602001858152602001848152602001838152509050806007600060085481526020019081526020016000206000820151816000015560208201518160010155604082015181600201908051906020019061422492919061426a565b50606082015181600301908051906020019061424192919061426a565b50608082015181600401908051906020019061425e92919061426a565b50905050505050505050565b828054600181600116156101000203166002900490600052602060002090601f016020900481019282601f106142ab57805160ff19168380011785556142d9565b828001600101855582156142d9579182015b828111156142d85782518255916020019190600101906142bd565b5b5090506142e69190614508565b5090565b60c0604051908101604052806000815260200160008152602001606081526020016060815260200160608152602001606081525090565b60e0604051908101604052806000815260200160608152602001606081526020016060815260200160608152602001600073ffffffffffffffffffffffffffffffffffffffff168152602001606081525090565b61010060405190810160405280600081526020016060815260200160608152602001606081526020016060815260200160608152602001600073ffffffffffffffffffffffffffffffffffffffff168152602001606081525090565b828054600181600116156101000203166002900490600052602060002090601f016020900481019282601f1061441257805160ff1916838001178555614440565b82800160010185558215614440579182015b8281111561443f578251825591602001919060010190614424565b5b50905061444d9190614508565b5090565b828054600181600116156101000203166002900490600052602060002090601f016020900481019282601f1061448a57805485556144c7565b828001600101855582156144c757600052602060002091601f016020900482015b828111156144c65782548255916001019190600101906144ab565b5b5090506144d49190614508565b5090565b60a06040519081016040528060008152602001600081526020016060815260200160608152602001606081525090565b61452a91905b8082111561452657600081600090555060010161450e565b5090565b9056fea165627a7a72305820c83204ed08f0b96e80cae4e4f6434762a1a575ab8473915314855778a8714be20029",
  "source": "pragma solidity ^0.5.0;\n\ncontract Marketplace {\n    string public name;\n    uint public patCount = 1000;\n    uint public AppCount=0;\n    mapping(uint => Patient) public patients;\n    mapping(uint=>Appointments) public apps;\n// id,name,username,pass,email,blood,address,filehash\n    struct Patient {\n        uint id;\n        string name;\n        string email;\n        string blood;\n        string addr;\n        address payable patacc;\n        string pri;\n    }\n    struct Appointments\n    {   uint patid;\n        uint docid;\n        string patname;\n        string blood;\n        string addr;\n        address patadd;\n        address docadd;\n        bool status;\n\n\n    }\n    struct report\n    {\n        uint patid;\n        uint docid;\n        string docname;\n        string repname;\n        string hash;\n    }\n    struct prescription {\n        uint patidp;\n        uint docidp;\n        string docnamep;\n        string filenamep;\n        string datep;\n        string hashp;\n    }\n    mapping(uint=>prescription) public prescriptions;\n    uint public preCount=0;\n     mapping(uint=>report) public reports;\n     uint public repCount=0;\nevent PatientCreated(\n    uint id,\n        string name,\n        string email,\n        string blood,\n        string addr,\n        address payable patacc,\n        string patpri\n);\nuint public docCount = 0;\nstring public patientname;\n    mapping(uint=> doctor) public doctors;\n    \n    struct doctor {\n        uint id;\n        string name;\n        string spec;\n        string email;\n        string addr;\n        string filehash;\n        address payable docacc;\n        string pri;\n    \n\n    }\n    event DoctorCreated(\n        uint id,\n        string name,\n        string spec,\n        string email,\n        string addr,\n        string filehash,\n        address payable docacc,\n        string pri\n        \n\n    );\n    function createDoctor(uint _id,string memory _name,string memory spec,string memory _blood,string memory _addr,string memory _hash,address payable _docacc,string memory pri) public {\n        docCount++;\n        doctors[docCount] = doctor(_id,_name,spec,_blood,_addr,_hash,_docacc,pri);\n        emit DoctorCreated(_id,_name,spec,_blood,_addr,_hash,_docacc,pri);\n    }\nevent bookAppointment(\n    uint patid,\n    uint docid,\n    string name1,\n    string name2,\n    address payable patient,\n    address payable doctor\n    //bool purchased\n);\nevent searched(\n    string name,\n    address ad\n\n);\n    constructor() public {\n        name = \"Medical records\";\n    }\nfunction createPatient(string memory _name,string memory _mail,string memory _blood,string memory _addr, address payable _patacc,string memory patpri) public {\n    // Require a valid name\n    require(bytes(_name).length > 0);\n    // Require a valid price\n    //require(_age > 0);\n    // Increment product count\n    ++patCount;\n    // Create the product\n    patients[patCount] = Patient(patCount,_name,_mail,_blood,_addr,_patacc,patpri);\n    // Trigger an event\n    emit PatientCreated(patCount,_name,_mail,_blood,_addr,_patacc,patpri);\n}\n\n\n\nfunction bookAppointments(uint pat_id, uint doc_id2) public payable {\n    // Fetch the patient amd doctor\n    Patient memory _patient=patients[pat_id];\n    doctor memory _doctor=doctors[doc_id2];\n    // Fetch the patient\n    /*for(uint i=0;i<patCount;i++)\n    {\n        if(patients[i].id==_id)\n        _patient = patients[i];\n    }\n    for(uint i=0;i<docCount;i++)\n    {\n        if(doctors[i].id==_id2)\n        _doctor = doctors[i];\n    }*/\n    //address payable _seller = msg.sender;\n    address payable _doctor1=_doctor.docacc;\n    // Make sure the product has a valid id\n    require(_patient.id > 0 && _patient.id <= patCount);\n    //storing Appointment Details\n    AppCount++;\n    apps[AppCount].patid=pat_id;\n    apps[AppCount].docid=doc_id2;\n    apps[AppCount].patname=_patient.name;\n    apps[AppCount].blood=_patient.blood;\n    apps[AppCount].addr=_patient.addr;\n    apps[AppCount].patadd=_patient.patacc;\n    apps[AppCount].docadd=_doctor.docacc;\n    apps[AppCount].status=false;\n    address(_doctor1).transfer(msg.value);\n    // Trigger an event\n    emit bookAppointment(_patient.id, _doctor.id,_patient.name,_doctor.name, _patient.patacc, _doctor.docacc);\n}\nfunction searchPatient(address payable _patient) public\n{\n    for( uint i=0;i<patCount;i++)\n    {\n        if(patients[i].patacc==_patient) {\n        patientname=patients[i].name;\n//emit searched(patients[i].name,patients[i].patacc);\n        }\n        \n    }\n}\n\n\nfunction ApproveAppointment(address patadd,address docadd) public\n{\nfor(uint i=0;i<=AppCount;i++)\n{\n    if(patadd==apps[i].patadd)\n    {\n        apps[i].status=true;\n    }\n\n}\n}\n\n\nfunction UploadReports(uint patid, uint docid,string memory docname, string memory name,string memory _hash) public\n{\n\nrepCount++;\nreport memory _uploaded=report(patid,docid,docname,name,_hash);\nreports[repCount]=_uploaded;\n}\n\nfunction uploadPrescription(uint patidp,uint doc_id,string memory dname,string memory filename,string memory presci,string memory filehash) public\n{\n    preCount++;\n    prescription memory pre=prescription(patidp,doc_id,dname,filename,presci,filehash);\n    prescriptions[preCount]=pre;\n}\n\n\n\n\n}",
  "sourcePath": "/Applications/XAMPP/xamppfiles/htdocs/react_feed/src/contracts/Marketplace.sol",
  "compiler": {
    "name": "solc",
    "version": "0.5.0+commit.1d4f565a.Emscripten.clang"
  },
  "schemaVersion": "3.0.2",
  "updatedAt": "2020-07-18T09:53:18.279Z",
  "devdoc": {
    "methods": {}
  },
  "userdoc": {
    "methods": {}
  }
}